:020000040800F2
:10000000800E0020D1000008D9000008BD160008AD
:1000100000000000000000000000000000000000E0
:10002000000000000000000000000000DD000008EB
:100030000000000000000000DF000008893E00080A
:10004000E300000800000000E3000008E3000008EF
:10005000E3000008E3000008E3000008D9020008FC
:1000600000000000AD020008E3000008C102000823
:10007000E3000008B53E0008E300000800000000AF
:10008000E3000008E3000008E3000008E3000008C4
:10009000E3000008E3000008E3000008E3000008B4
:1000A000E3000008E3000008E3000008E153000853
:1000B000E3000008E30000080448854600F092F8D9
:1000C000004800471D570008C046C046800E00206B
:1000D0000448804704480047FEE7FEE7FEE7FEE7E6
:1000E000FEE7FEE7B13E0008B900000830B50B4658
:1000F000014600202022012409E00D46D5409D4202
:1001000005D31D469540491B254695404019154687
:10011000521E002DF1DC30BD70B5002425460028AC
:1001200001DA01244042002901DA01254942FFF7A2
:10013000DDFFAC4200D04042002C00D0494270BDEF
:10014000F0B51FB40646002082B005464024019158
:1001500000901BE0019922460F46304600F020F83F
:10016000049A059B801A994110D3104619462246DD
:1001700000F027F8361A8F4101972246012000210E
:10018000009F00F01EF838184D4100902046641E74
:100190000028DFDC019B00982946324607B0F0BDFD
:1001A00010B5202A04DB0846203AD040002110BDBB
:1001B0000B46D340D0402024A21A91400843194650
:1001C00010BD10B5202A04DB0146203A91400020E2
:1001D00010BD914020239C1A0346E34019439040F0
:1001E00010BD0000064C0125064E05E0E36807CC73
:1001F0002B430C3C98471034B442F7D3FFF760FF11
:10020000F45D0008145E000870B58C180578401C79
:100210006B075B0F01D10378401C2A1106D10278CD
:10022000401C03E006780E70401C491C5B1EF9D18F
:100230002B0705D40023521E0DD40B70491CFAE77E
:100240000378401CCB1A921C03E01D780D70491CEA
:100250005B1C521EF9D5A142D8D3002070BD30B42A
:100260000AB203460846091414460D4654434D434A
:1002700064191D886D43A54215D2B225ED5C240E8C
:10028000641B2406E40DE3189B885A43D417640CBE
:10029000A218D21310465943CA17520C5118C91349
:1002A00080B20904084330BC7047000010B5034910
:1002B0000720486003F008FF10BD00000000024066
:1002C00004480168C943890402D4012149034160FB
:1002D00070470000000002400548102142690A42B0
:1002E00005D010B51021416104F0C3FE10BD704768
:1002F0000004014072B6FEE7816F7222525C022A4E
:100300000AD14A6809699162816F8A684969916274
:10031000816FCA688969916201216030017500208E
:10032000704710B40021002810D0017843780022D3
:100330005918002B07D98418A478521C6118D2B21E
:1003400089B29342F7D8080A4018C1B210BC0846D7
:1003500070470021418201750246417580329175D6
:10036000D17511765176FF3091760130C1760177E3
:1003700041777047002804D010B4019C1EC010BC07
:1003800070477047F7B586B0069900200B56029368
:100390000799002900DC49420491002A02D0012A71
:1003A00003D005E0002009B0F0BD079809B0F0BD0A
:1003B0000C21069B4143C918C96891421FD1411CB9
:1003C00021D00C214843C1188D684868049A83B233
:1003D00091B20C465C43120C5343240C000C1B19C5
:1003E0009CB2414309194243080C1B0CC018101859
:1003F000079928410029D9DC404209B0F0BD401CD2
:1004000040B20528D4DB01920392002A01DA54425B
:1004100000E014460120D10FC0070D1821462846E0
:10042000FFF764FE691A491E1F25E8070091FFF7D0
:100430005DFE009906464843E9070F1A2146E80782
:10044000FFF754FE01466143EA07511A009A76000D
:100450007F006D1C974201D3BF1A761C40004900F3
:10046000A14201D3091B401C621A9642EED3964268
:1004700001D1002FEAD00199401C002900DA404246
:10048000029A0C235A43069B0399D218203D95608B
:10049000D16050600299491C49B2052900DB002156
:1004A000069A117092E70022027011460C234B430A
:1004B0001B185A60491C9A60C9B2DA600529F5D345
:1004C0007047000010B52621074A41438C182421AB
:1004D000095D002906D105498000085803F08AF813
:1004E000E083208210BD0000F00800202C070020CF
:1004F00070B526224243124B0021D2181180518040
:100500009180D1809181D18111825182D183D18218
:1005100011835183840091830A481184005902F0A9
:1005200027F809480021005902F022F8074800592D
:1005300003F08DF80648005902F085F970BD0000FF
:10054000F008002034070020380700202C07002086
:100550004407002070470000F0B583B00025044632
:1005600020340095227D012A39D0012323750268A9
:10057000966876077CD4484F4E68BE4265D0966A2E
:100580000F78BB401E4396620123C26A1B079A4242
:100590001FD0012A1DD0022A1BD0032A19D0042AF9
:1005A00017D0052A15D0062A13D0072A11D00268C1
:1005B0008B6856697607760FB3420AD05369DB0819
:1005C000DB005361006842690B7A5B075B0F1A43DB
:1005D00042610A68102A05D0112A03D051E0022096
:1005E00003B0F0BD2D488368102A07D00122920580
:1005F000134383600868102803D042E00122D2052B
:10060000F6E7284826490068FFF770FD0A214843AD
:100610000090019035D02449884237D8002812DD57
:10062000C007C00F02D00099491E00910199401CDB
:10063000491C884225DA009A801C521E521E0092E4
:100640008842F8DB1DE00020F0E7906A0E78B340A6
:10065000984390620868102801D0112811D10F49E1
:100660008A68102805D00120800582438A6008E04E
:1006700002E00120C005F8E7816B2022114381636D
:10068000012500202075284603B0F0BD0098401ECB
:100690000090FCD1F5E700000110000000270140A8
:1006A00040420F007C070020FFFFFF7FF8B50026C7
:1006B0000446002805D0A06B25462035002802D02E
:1006C00007E00120F8BD0020E0632875204600F017
:1006D000A9F8A06B1022C006002870DB2068816892
:1006E00049076CD4A16B1301994302231943A163F9
:1006F00081688907890F012905D10168C9070FD1D0
:10070000C16809040CD4C16818239943A36819432C
:10071000C160206801696368890089081943016123
:100720002068C1683D4B1940C160207E617E800316
:10073000C9030843A17E4B031843A36A012B02D0CF
:1007400001231B0300E000231843E36818432369D7
:10075000022B09D0002318432B79E57E5B00184358
:100760000123012D02D00AE00423F4E7002927D059
:10077000A16B20252943A163E16B1943E163E16982
:100780000D46FF3DC23D02D0256A2943084321683A
:10079000CD680543CD600125E16A2D07A94213D03C
:1007A000012911D002290FD003290DD004290BD023
:1007B000052909D0062907D0072905D010E028E02F
:1007C000012109040843DAE721684D69ED08ED00CD
:1007D0004D6121684D69A78D7F077F0F3D434D61B6
:1007E0002168C9680E4D2940814207D10020E0638D
:1007F000A06B80088000401CA06308E0A06B022171
:1008000088431043A063E06B1843E0630126304641
:10081000F8BDA06B1043A063F8E700001902FEFFCB
:10082000E7FF3F8370B586B0002605460096019627
:1008300002960396049600681E49884238D11E49E4
:100840008A69401502438A618A69024005924A69B1
:10085000000202434A614969014005911720009056
:100860000320019009206946C00600F061F8144C8D
:1008700012486660A66020608020E0604000206131
:10088000800060612020A0610002E061204600F04D
:100890001BF8002801D0FFF72DFD0A48816A0909DD
:1008A00009018162816A0122114381622C636562C0
:1008B00006B070BD00240140001002400800024054
:1008C0008008002080000240002801D101207047EC
:1008D00070B5044602212030054641702268116837
:1008E0001048A3680140606826691843E3683343F1
:1008F000184363691843A3691843E369184308431D
:1009000010600949206840181421FFF7EFFB8000B0
:10091000206400210548A163E0630120687029700C
:10092000084670BD0FC0FFFFF8FFFDBF000002408A
:100930000B680022002B6FD0F8B401270B6897409A
:100940003B406AD04C68022C01D0122C0ED1D40846
:10095000A4002418A446246A5507ED0E0F26AE40C5
:10096000B4430E69AE4026436446266205685600CD
:100970000324B440A446A5430C79A407A40FB440B3
:100980002C4304604C68012C05D0022C03D0112CA0
:1009900001D0122C0FD185686446A5432C46CD6842
:1009A000B5402543856045680C79BD43E406E40FF6
:1009B00094402C434460C4686546AC438D68B540A0
:1009C0002543C5604C68E40049D5294CA56901263A
:1009D0003543A561A469950834400094254CAD00C9
:1009E0002F19BC6895072E0F0F25B540AC4309257C
:1009F000ED06A84201D1002511E01F4DA84201D10A
:100A000001250CE01D4DA84201D1022507E01C4D37
:100A1000A84203D1032502E028E020E00525B540E7
:100A20002543BD60174C25684E689D43F60300D5ED
:100A30001D43256065684E689D43B60300D51D4380
:100A40006560A5684E689D43F60200D51D43A5600C
:100A5000E5684E689D43B60200D51D43E5600B680E
:100A6000521CD34000D068E7F8BC704770470000C4
:100A70000010024000000140000400480008004847
:100A8000000C0048000401400148806870470000E5
:100A900070070020024881680278891881607047D9
:100AA0007007002010B5064801681022114301604C
:100AB000022000F007F800F027F8002010BD000029
:100AC0000020024070B504460D4D7D202978C000FD
:100AD000FFF70CFB01460B480068FFF707FB00F02F
:100AE000B1FB002809D1042C07D200222146401E68
:100AF00000F02AF800206C6070BD012070BD00007D
:100B0000700700207C070020084881B0816901221D
:100B100011438161816911400091C26901040A4356
:100B2000C261C0690840009001B0704700100240E7
:100B3000002805DBC106C90E012088400149086074
:100B40007047000000E100E08207D30EFF229A40C8
:100B50008907090E9940002808DB830809489B0093
:100B60001818036893430B43036070470007000F96
:100B70000838830804489B001B18D8699043084331
:100B8000D861704700E400E000ED00E0F8B50446ED
:100B90000068C0035BD539480027C069C00008D48D
:100BA0003648C26901040A43C261C069084001278E
:100BB0000090334D2868C00511D42868A915084352
:100BC0002860FFF761FF06462868C00507D4FFF7D5
:100BD0005BFF801B642826D82868C005F7D5274806
:100BE000006A03210902084023D062680A40824259
:100BF0001FD0224E306A326A8843012109040A4319
:100C00003262326A8A4332623062C00711D0FFF723
:100C10003BFF316A054689070BD41A4EFFF734FFB4
:100C2000401BB04201D90320F8BD1448006A800778
:100C3000F4D51248016A03221202914362681143FB
:100C40000162002F03D0C26901048A43C261207887
:100C5000C00706D00948016BA268890889001143C2
:100C600001632078800606D50448016B1022914369
:100C7000E268114301630020F8BD0000001002404B
:100C80000070004088130000002801D10120704747
:100C9000F8B505463E480E460068C007C00FB04292
:100CA0000AD23B48016849084900314301600068A5
:100CB000C007C00FB04250D12868364C81070CD510
:100CC000400704D560680721090208436060606836
:100CD000F0218843A968084360602878C0072CD0B9
:100CE000686801281BD0216802281CD0890734D5E8
:100CF00061688908890001436160FFF7C5FE61688A
:100D000007466A680C2001409200914215D0FFF717
:100D1000BBFEC11B2048814208D90320F8BD2168D1
:100D200089031AD5E4E7890117D5E1E760680C214A
:100D30000840696889008842E9D115480168C907F7
:100D4000C90FB1420BD9016849084900314301601C
:100D50000068C007C00FB04201D00120F8BD28785C
:100D6000400706D56068072109028843E9680843FF
:100D7000606000F037F86168084A0906090F515CA5
:100D8000C840074908600220FFF79CFE0020F8BD1C
:100D9000002002400010024088130000C05D0008DF
:100DA0007C070020034801680122D204114301603E
:100DB00070470000001002400148006870470000C2
:100DC0007C0700200448054900684968044A490531
:100DD000490F515CC84070477C070020001002405A
:100DE000D05D000810B513A30FCB88B06C460FC4BC
:100DF00014A30FCB0FC417494B680C201A460240AE
:100E00001548042A13D0082A11D19A02120F6C46F1
:100E1000A45CC96A04AA0907090F525CD903890FA7
:100E200000231946FFF78CF9214604F03AFC08B07C
:100E300010BD000002030405060708090A0B0C0D8B
:100E40000E0F10100102030405060708090A0B0C17
:100E50000D0E0F100010024000127A00002801D180
:100E600001207047F8B504460078F24DC0074ED017
:100E700068680007800F012819D068680007800F94
:100E8000022804D16868C003800F02280FD0012116
:100E900060680904012811D08A00002801D00528C3
:100EA00021D02868884328602868904308E0286893
:100EB00080032CD5606800287ED028E0286808438D
:100EC00028606068002814D0FFF7DEFD0646286819
:100ED00080031CD4FFF7D8FD801B64286DD82868D8
:100EE0008003F7D513E0286810432860286808437A
:100EF000E6E7FFF7C9FD06462868800307D5FFF738
:100F0000C3FD801B642858D828688003F7D4207854
:100F1000800742D568680007800F26D06868000700
:100F2000800F022804D16868C003800F01281CD0FC
:100F3000E068002828681FD0012108432860FFF7D7
:100F4000A3FD06462868800707D4FFF79DFD801B98
:100F5000022832D828688007F7D52868F821884306
:100F60002169C9000843286017E028688007F4D584
:100F7000E068012820D1F0E7400840002860FFF732
:100F800083FD06462868800707D5FFF77DFD801B97
:100F9000022812D828688007F7D4207800072AD5BD
:100FA000E069002815D0696A012001436962FFF7F2
:100FB0006BFD0646686A01E037E179E080071AD4E4
:100FC000FFF762FD801B022872D8686A8007F7D598
:100FD00011E0686A400840006862FFF755FD064668
:100FE000686A800707D5FFF74FFD801B02285FD88E
:100FF000686A8007F7D42078400770D500200090F9
:10100000E869C00008D4E869012109070843E861DC
:10101000E869084001200090874F3868C00511D466
:101020003868B91508433860FFF72EFD0646386862
:10103000C00507D4FFF728FD801B642838D838681E
:10104000C005F7D5A06801281ED0002820D00528AB
:10105000286A25D0400840002862286A0421884375
:101060002862A068754E002823D0FFF70DFD0746C3
:10107000286A80072BD4FFF707FDC01BB04266D853
:10108000286A8007F7D522E0286A01210843E7E7AC
:10109000286A400840002862296A0420814305E04C
:1010A000042108432862296A012001432962D8E704
:1010B0004DE0FFF7E9FC0746286A800707D5FFF7F0
:1010C000E3FCC01BB04242D8286A8007F7D40098DE
:1010D000002804D0E869012109078843E8612078E5
:1010E000C0061AD56069012833D0696B401D4ED007
:1010F000042001436963686B400840006863FFF7A0
:10110000C3FC0646686B800707D5FFF7BDFC801B54
:1011100002281CD8686B8007F7D4206A00286AD0A0
:1011200069680907890F02296AD001273F0602284A
:10113000286830D0B8432860FFF7A6FC044628682A
:10114000800174D5FFF7A0FC001B022854D90320AE
:10115000F8BD696B042001436963696B0120014399
:101160006963FFF791FC0646686B800707D4FFF7B9
:101170008BFC801B0228EAD8686B8007F7D5686B68
:10118000F8218843A169C90008436863C5E70420C2
:1011900081436963F3E7B8432860FFF775FC0646AF
:1011A0002868800107D5FFF76FFC801B0228CED886
:1011B00028688001F7D4E86AE16A00090001084361
:1011C000E862616AA06A084369687B22D20391439E
:1011D00008436860286838432860FFF755FC0446D8
:1011E0002868800123D4FFF74FFC001B0228AED8EB
:1011F00028688001F7D51AE028688001A2D416E09B
:101200000128A5D06868E96A0322D203636A024014
:101210009A420AD10907E26A090F914205D10F21CA
:1012200089040840A16A884201D00120F8BD00204D
:10123000F8BD00000010024000700040881300005C
:10124000704700000B4910B4401E884202D910BC00
:10125000012070470849486108480722C3691B02FA
:101260001B0A4C042343C361002088610A6110BC3F
:1012700070470000FFFFFF0000E000E004ED00E029
:1012800010B5FFF7DDFF10BD034620331A7F012A9A
:1012900001D10220704710B401221A770324CA68D2
:1012A0002402A2438C68006822430124A402A243C2
:1012B0004C6822430124E402A2430C682243012427
:1012C0002403A2430C69224301246403A2434C6912
:1012D000C96922430124A403A2430A4342640020B3
:1012E000187710BC7047000002462032137F012B94
:1012F00001D102207047F0B40125157702235377FE
:1013000006687468B3687027BC430F68274377602A
:101310000068094CA04205D0084CA04202D0084CFD
:10132000A04204D180244968A343194381605577C2
:1013300000201077F0BC7047002C014000040040F2
:101340000040014030B587B0002100910191029129
:101350000391049100681749884228D116484269D0
:10136000012189040A43426142690A4005924269A7
:1013700049100A4342614069022508400590072050
:101380004003032400900195029569460495039457
:101390000A48FFF7CDFA07200002009009200195C6
:1013A0000295694604950394C006FFF7C1FA07B099
:1013B00030BD0000002C0140001002400004004835
:1013C000F8B5064604462036307F0D4601280CD07D
:1013D0000120307702207077002A08D0042A19D023
:1013E000082A2CD00C2A71D171E00220F8BD2068A7
:1013F00002F0CAFD206881690822114381612068DA
:101400008169042291438161206881692A691143BD
:1014100081619BE0206802F0FDFD20688169012266
:10142000D202114381612068816952109143816128
:10143000206881692A6912021143816186E020686F
:10144000016AFF22013291430162076A4268C16961
:101450007023994389082B6889000B4301214902B5
:101460008F43A968090239433B4FB84208D1C714DA
:10147000B943EF683F020F4301158F43394608E037
:10148000364FB84205D0364FB84202D0354FB84239
:1014900008D103273F03BA436F693F011743AA6985
:1014A00012013A434260C3616A68C2630162206804
:1014B000C16908221143C1612068C16904229143B6
:1014C000C1612068C1692A691143C1613EE0206899
:1014D000026A012109038A430262026A4168C769FC
:1014E00073231B029F432B681B023B4301277F038F
:1014F000BA43AF683F031743174A904208D0174AD0
:10150000904205D0164A904202D0164A904206D127
:101510000A46012189038A436969890111434160AF
:10152000C3616968016407622068C1690122D2024F
:101530001143C1612068C269012189028A43C261E5
:101540002068C1692A6912021143C16101207077C4
:1015500000203077F8BD0000002C01400040014021
:101560000044014000480140002801D1012070479B
:1015700070B5054604462035687F002803D12877DA
:10158000204600F00BF802206877211D206802F049
:10159000B5FC01206877002070BD000000B587B061
:1015A000002100910191029103910491006810497A
:1015B00088421AD10F488269C1140A438261826944
:1015C0000A400592426989010A4342614069084024
:1015D000059040200090022001210190049002918A
:1015E00009206946C006FFF7A3F907B000BD000057
:1015F000002C014000100240002801D1012070475A
:1016000010B50446406F002805D100217020015517
:10161000204600F027F82420606720680168490808
:1016200049000160204603F071F8012818D0606A73
:10163000002802D0204602F0D3FF20684168012232
:10164000D202914341602068816808229143816001
:1016500020680168012211430160204603F026F84A
:1016600010BD000000B587B00021009101910291EA
:101670000391049100680E49884217D10D48826990
:10168000012189030A43826182690A400592426905
:1016900009010A434261406908400590C02000905A
:1016A0000220019069460448FFF742F907B000BDE7
:1016B00000380140001002400004004802F0F4FC31
:1016C000154C0825206AC069C043000706D413489A
:1016D00003F05AF9206A056203F006FD206AC0692A
:1016E000C043000602D40D4803F0E8F9206AC1693E
:1016F000C9438906E6D4808CC1B2084803F04EF98C
:101700000088012804D00228DCD103F0EDFCD9E7E1
:1017100003F0E4FCD6E70000E4060020E405002026
:1017200010B50446406801F0F3FFA1680882000C80
:10173000488210BD10B50068012102F052F810BDBA
:10174000002839D010B50446007E012833D1217B12
:101750000020012904D0022910D0032929D11EE03C
:10176000A168203108710121606802F000F80E21A3
:10177000E28A615E606801F074FF0CE0A1682031CC
:1017800008710021606801F0F2FF1021E28A615EB9
:10179000606801F066FF00280BD002200AE0A16813
:1017A000012020310871A068618A0182A18A4182EA
:1017B000F3E70320207610BD704701230373C18136
:1017C000C282037643767047022303730182C2828A
:1017D0000121017600214176704710B5006801F0C3
:1017E000D0FF10BD10B5406801F0A9FF01F0BAFEAE
:1017F00010BD407E7047836819880846598880B2BA
:10180000090408437047836899880846D98880B2DC
:10181000090408437047014601200B7B821E012BFF
:1018200008D0022B0CD0032B03D11223CB5E002B4C
:1018300004DB70470E23CB5E002BFADA10467047AC
:101840001023CB5E002BF9DB70478368998908462B
:10185000D98980B20904084370478368198A084609
:10186000598A80B2090408437047027B0021012A8B
:1018700001D10E21415E0846704710B5406801F065
:1018800050FF10BD10B5006801F0A4FF10BD8168C5
:101890001E20085E70478368598B0846998B80B27A
:1018A0000904084370478368D98A0846198B80B2B7
:1018B000090408437047836042600160002101739E
:1018C000C1810182C1820176704703220273418285
:1018D00009148182012101760021417670478268D6
:1018E000518280688182704710B5044600680321E8
:1018F00001F077FF002801D00121217610BD10B53D
:101900000068072101F06DFF10BD10B5406801F0BF
:1019100034FF10BD01B2120C12048BB21A430D4BEE
:10192000001459435843091808180B494042C01382
:10193000CB43884203DC1946884200DB01B290B2F7
:101940000A041043994203D1044980B209040843B0
:1019500070470000E6490000FF7F00000180FFFFA4
:10196000F8B50546084600F053F829B22A140B468C
:1019700006B20714154671437D43481B1449C5132D
:101980008D4201DD084603E01248854200DB28B2A3
:10199000250C2D0484B225430E4CA04203D12D0CFE
:1019A0000D482D0405437B4372439818C0138842A9
:1019B00004DCA04201DA214600E001B2A8B20A0428
:1019C0001043A14203D1054980B209040843F8BD80
:1019D000FF7F00000080FFFF018000000180FFFF0B
:1019E00070B50546084600F013F8024629B203B266
:1019F00028140E46121405465E435543751951438B
:101A00005843401AED13C113A8B20904084370BD2E
:101A10000122D203821812040323920D1B021A40E2
:101A2000012330B4DB03C11889040C0E6300FF25C9
:101A30002C1B1E496400002A1FD0FF3A521E29D0D9
:101A4000FF3A521E0ED0FF3A012A09D10A5BC95A49
:101A500080B2120410434942000C000489B20843CA
:101A600030BC7047CA5A80B21204095B1043000CA4
:101A7000000489B230BC08437047CA5A095B52421D
:101A800080B2120410434942000C000489B230BCF9
:101A9000084370470A5B80B252421204C95A10438D
:101AA000000C000489B230BC084370474A5B000850
:101AB000FFB581B004460A9F0B980D46A161A8218D
:101AC0000851094816460090084B094A2146284605
:101AD000FEF750FCE661049867622062204600F041
:101AE00051FB05B0F0BD0000F51A0008FD1A000812
:101AF0007D21000810B500F045FB10BDF0B50E4685
:101B000005468DB00020144669461F4608717209CB
:101B100008D000212846521E03F0F7FA002812D000
:101B2000F606F60E132E70D23000784400790018B5
:101B30008744830DAEBD6B6BBCBBBAB9B8B7B6B545
:101B40006B6B6B6B83000B206946087202E3207895
:101B500005216A4611720146472857D02EDC0F290D
:101B600078D00EDC0F2871D202007A4412799218D4
:101B700097445D8B8B648B70707070707070707038
:101B80007000172966D00CDC0146103907297CD279
:101B90000A007A44127992189744676777775C5CF9
:101BA0005C001D2953D004DC182953D01C286CD1AB
:101BB0004DE041294ED0462867D156E0652949D0ED
:101BC0001EDC572946D00EDC542943D006DC4829B8
:101BD0004BD04F293ED0532857D13BE0552939D01F
:101BE000562852D136E05B293FD004DC582931D049
:101BF00059284AD12EE061292CD0642845D129E00A
:101C000001467439152940D201E0A0E22DE00A0016
:101C10007A441279921897441128282828283838AD
:101C2000382828383838383838381D1D1D00627873
:101C3000284603F06AFA694608718BE20146627829
:101C4000284603F062FA6946087183E21DE001202C
:101C5000114608E0A278617812028A1801462846E7
:101C600003F053FA6946087174E2A27861781202AF
:101C70008918E278237912041B06D2188A180146C3
:101C8000284603F042FA6946EDE70220694666E11C
:101C9000217803206A461072892909D209E0AEE151
:101CA00035E21EE20CE2E7E1BFE191E163E158E1D8
:101CB00053E1880078444068874400002402000013
:101CC00068020000240200002402000068020000F4
:101CD00046020000460200004602000046020000E4
:101CE00046020000460200004602000046020000D4
:101CF00046020000460200004602000046020000C4
:101D000046020000460200004602000046020000B3
:101D100046020000460200004602000046020000A3
:101D2000460200004602000046020000980400003F
:101D3000980400006802000046020000460200000D
:101D400046020000240200009E0200009E020000E5
:101D50009E0200009E0200009E0200009E02000003
:101D60009E0200009E0200009E0200009E020000F3
:101D70009E0200009E0200009E0200009E020000E3
:101D80009E0200009E0200009E0200009E020000D3
:101D90009E0200009E0200009E0200009E020000C3
:101DA0009E0200009E0200009E0200009E020000B3
:101DB0009E0200009E0200009E0200009E020000A3
:101DC000460200009E0200009E0200009E020000EB
:101DD0009E02000068020000680200006802000025
:101DE00046020000460200004602000046020000D3
:101DF00024020000680200004602000046020000C3
:101E000046020000460200004602000046020000B2
:101E100046020000460200004602000046020000A2
:101E20004602000024020000680200009E0200003A
:101E30004602000046020000460200004602000082
:101E4000460200009E0200009E02000046020000C2
:101E50004602000024020000240200006802000084
:101E600068020000680200006802000068020000CA
:101E70002402000046020000460200006802000042
:101E80009E020000460200004602000024020000FC
:101E9000680200006802000068020000680200009A
:101EA000680200006802000068020000680200008A
:101EB00068020000680200006802000024020000BE
:101EC0009E020000240200008A0200008A02000034
:101ED0008A0200004602000046020000460200009E
:101EE00001AA284602F074FE009068460079002896
:101EF0007ED00123EC696A46F021A869A0470DB0A5
:101F0000F0BD01AA284602F063FE00906846007901
:101F100000286DD00223EC696A46F021A869A04729
:101F20000DB0F0BD01AA284602F052FE00906846AE
:101F3000007900285CD00423EC696A46F021A86986
:101F4000A0470DB0F0BD01AA284602F041FE009066
:101F5000684600790028EED106E103201146087298
:101F6000F8E0217807206A461072284602F0D7FD73
:101F70006A461071EEE0002004AA01461154401C8C
:101F8000C0B22028FAD300202946803105E0141879
:101F9000401CC0B2E3701D2803D28B6A1B5C092B66
:101FA000F5D18B6A421D9C5C6A461474C21D9B5C11
:101FB0006A465374896A0930085C90742023EC697E
:101FC00004AAF021A869A04701206A461071C5E063
:101FD000617920790902401882B26178207809027B
:101FE0004018A178E37809041B06C918411800E0DD
:101FF000BAE0284602F0CDFD69460871AAE0617991
:1020000020790902401882B26178207809024018CC
:10201000A178E37809041B06C918401801B22846C4
:1020200002F0CAFD6946087194E006A80090217884
:1020300007AB03AA284602F0F9FF69461C20085E98
:102040003C2148430A21FEF767F8694608740212EA
:102050004A7402148A74000EC874088B0875001242
:10206000487588898875000AC8750823EC6904AA30
:10207000F021A869A0476DE0217AE07909024018B3
:1020800086B2A178607809024118E07827780204C6
:1020900020790006101808180A2148433C21FEF751
:1020A0003BF803B2A17960790902401800B20090B0
:1020B00032463946284603F048F96946087149E036
:1020C000617820780902401801B2E278A078120203
:1020D000801802B2284603F00DF801206946087105
:1020E0003CE0694606940F770C200872224906A846
:1020F00002F06BFD6946087100282BD01E48EC6980
:1021000003790268F021A869A0470DB0F0BD002056
:10211000294604AB803104E01A54401CC0B2202888
:102120000BD28A6A125C002AF6D1202805D200213F
:102130001954401CC0B22028FAD32023EC6904AA09
:10214000F021A869A04701206946087106E0012036
:102150006946087268460079002805D000231A46AF
:10216000F021EC69A86904E00123EC6902AAFF21CF
:10217000A869A0470DB0F0BD0C00002010B500F01C
:1021800001F810BD10B50446616A80698847802156
:10219000AC200155216AA069884710BD10B50248DE
:1021A0000068FFF76FFB10BD0400002006480078B0
:1021B000002807D010B500F009F802F09FF902F0EE
:1021C0006DFF10BD704700002007002010B50D4CBA
:1021D0002078012815D16088002802D06088401E30
:1021E00002E002F039F801206080A088002802D0C7
:1021F000A088401EA080E088002802D0E088401E11
:10220000E08010BD2007002010B502480068FFF7ED
:102210006BFB10BD0400002010B502480068FFF7FA
:102220006EFB10BD04000020F3B581B0514801F0F1
:10223000D3FA514E00245249347050480860524835
:1022400050490160084600F069FC504800F086F9EA
:102250004F484E490160504D4E4828604F4801F0AC
:102260007FFD281D01684D4A286801F070FA4C482E
:1022700003F0AEF944484B4B00680090484A4A4886
:10228000296801F0D9F8494800F068F9484800F099
:1022900065F9484845490160474845490160474854
:1022A000F06101F054F9474945480860FF300130BA
:1022B000F169454FC7600161444800F01FF9444887
:1022C0004249016044494348086001F011F8002088
:1022D000FEF70EF9414901200871286801F018FA4B
:1022E0003882000C7882286801F012FA0014B88253
:1022F0003C4F3B483860344B1E492A68FFF7DBFAF5
:10230000286801F014FA3B68014600221846FFF7DE
:1023100054FA019839680160281D0168324801604B
:1023200024490968416024490968C46081601649EC
:10233000096801611C4941611849C46181611849FA
:102340000162296841620B49816214390968C162DE
:10235000F1694463846301631A490968046444644D
:102360008464C4640465C16302990860012030700C
:1023700003B0F0BD540700202007002030050020E6
:102380004C070020580200204407002028010020AC
:1023900030070020AC0100202C0700204C03002057
:1023A000D402002074040020E00100205401002029
:1023B000800100203407002038070020B0040020EE
:1023C0001400002048070020F008002088040020A6
:1023D00040070020D80400205007002010090020EA
:1023E00018090020280700203409002030B4C31D3C
:1023F000F9331A880024520081521A885A80521CDC
:1024000092B21A80802A01D300221A80002255003D
:10241000455F521C2C1992B2802AF8D3E017400E67
:102420000019C011988030BC0846704700210A4648
:102430004B00491C89B2C2528029F9D3FF300130C8
:10244000028042807047FF210531085E704700001E
:1024500008B5FEF7B1FC7D210901FDF747FEFEF747
:10246000F1FE07490748FFF7DFFE03F0CFFA064801
:10247000034B00901A1F0121044802F07FFF08BDA2
:102480000800002004000020285B00080000002055
:1024900010B504460078002801D0002013E0262063
:1024A000005D00F0A7FD09490246884208D0208B54
:1024B000238A0146401E43439818FDF717FE2082E9
:1024C000204600F02EF8E08280B210BDFFFF000031
:1024D0000021018270470178002902D0808A00B271
:1024E0007047018A026A8A1A1E21415E808C51431C
:1024F000CA17120C511809140818F0E710B5044651
:102500000078002804D00020E082608A208210BD7C
:10251000201D00F049FE262108552046FFF7D8FF70
:1025200010BD018A428B914201D908207047828BED
:10253000914201D200207047C08A70470146222094
:10254000085E704701460620085E7047408B704762
:1025500001460420085E7047008B70470188818027
:102560004188C180018C4184002181608162704773
:102570008160704741847047C18070478180704797
:10258000F0B40422825E062314251624C35E0026BE
:10259000455F045F4A43002B09D087684B43F91815
:1025A00008D5002F0BDD002B09DD144907E00021C1
:1025B00081600DE0002F02DA002B00DA1049C368B9
:1025C0008B4202DB03698B4201DD836000E08160A6
:1025D0008168877F0B463B41077F3A419A18AA42A0
:1025E00002DDAE1A2A4603E0A24201DAA61A22460A
:1025F00089198160F0BC10B270470000FFFFFF7FB7
:102600000100008070B5C51DF935EA68044693895C
:102610001846D38980B21B041843D38A128B99B20F
:102620001204114302B20BB2001409145A43484376
:102630001018C117090C08180614286902F002FFC7
:10264000A96848434B21C900FDF766FD01463046A5
:102650004843062148430A21FDF75EFDC117090CD6
:10266000081801142046FFF7C1FE70BDC169084774
:1026700070B50446002640340546002902D00129E1
:1026800008D015E0284600F0DEF8608AA080002817
:1026900008D00DE0A088002809D0401E0004000CDE
:1026A000A08005D1296928468847012600E0012637
:1026B000304670BD42681047F0B404460AB2403458
:1026C000268A09147143038E49005A4349428B18E4
:1026D000DD0FEB188A1AD50FAA1805465B105210A9
:1026E0002035B608002B43DA002A14DA0421A97633
:1026F000991ACD17AD0B691889147518D117C90B24
:10270000891849144A19D917C90BC91849146B1AE1
:102710008387C58759E0002914DC0323AB768B1A25
:10272000DD17AD0BEB189B14F518D317DB0B9A18BC
:10273000CB17DB0B5214591852194914531A8387BB
:10274000C28713E00222AA765A1AD517AD0BAA182F
:102750009214B518DA17D20BD2185214AB1ACA1742
:10276000D20B51184914CA188287C387258043E0C9
:10277000002A14DB0121A976991ACD17AD0B69182F
:1027800089147518D117C90B891849144A19D91712
:10279000C90BC918491482876B1AC5872BE0002919
:1027A00015DC0522AA765A1AD517AD0BAA18921471
:1027B000B518DA17D20BD2185214AB1ACA17D20BAB
:1027C000511849148587CA18C387228014E0002352
:1027D000AB768B1ADD17AD0BEB189B14F518D317DE
:1027E000DB0B9A18CB175214DB0B521959184914EA
:1027F0008587531AC2872380A9B2418692B2828606
:102800009BB2C386E589012D1AD10825655F002D8D
:10281000A58A01DD491900E0491B41860A21615E54
:102820000029A18A01DD511800E0511A81860C218E
:10283000615E0029A18A01DD591800E0591AC1869C
:102840008169F0BC0847816808470000F0B50026A0
:1028500083B0C66506660546454F60354666AE746C
:10286000396A0446434881433962434961604349B8
:102870000420A161E8740146204620300290817650
:10288000204600F073FAA06F23466030C27A2146DA
:102890007233383138460193009103F01BF920461A
:1028A00000F014FA36496160EE7402988676AE74D0
:1028B000204600F05BFAA06F019B6030C27A384678
:1028C000009903F007F9204600F000FA029804216D
:1028D0008176E06D0109E165206E01092166606E77
:1028E000010961662749616027492848A16181790A
:1028F00027480818026827498B79082199408A439C
:10290000026002688A43026002688A4302602046CD
:102910004030818D7963818DB963808DF8631B4868
:1029200001781B48081802681A490B780821994059
:102930000A4302601548817815480818026815494D
:102940008B78082199400A430260104801791048A9
:10295000081802680F490B79082199400A43026060
:10296000386A044908433862AE7503B0F0BD000010
:10297000002C014055050000912A0008592C000840
:10298000DD2A000899290008772C0008DD5D000881
:10299000182C0140E45D0008F0B43A4B5A687024EA
:1029A000A2435A603A22384B165CDA680424A243E8
:1029B000DA60B2001446836F34341C5924884C32D8
:1029C0009A581588314A5342062E4ED237007F441A
:1029D0003F79FF19BF44142F2F020214C66D341B18
:1029E0009C4201DA0B8004E0944201DD0A8000E0A1
:1029F0000C80046E641B9C4234DB94422EDC33E07A
:102A0000066E341B9C4201DA4B8004E0944201DDE7
:102A10004A8000E04C80446E641B02254D5F2C19F7
:102A20006442944201DD0A801FE09C4201DA0B807F
:102A30001BE00C8019E0C66D341B9C4201DA0B8050
:102A400004E0944201DD0A8000E00C80446E641BC7
:102A500000254D5F2C196442944201DD4A8004E058
:102A60009C4201DA4B8000E04C800A8840300281B1
:102A70004A8842810A884988511849428181F0BCBC
:102A800070470000002C014000240140FF7F00003F
:102A900070B4114B02466032D47C5D687026B54339
:102AA0005D60937C102B12D2A3001C46856F3434DA
:102AB0002C592488C56D6419C465846F4C33E35860
:102AC0001B88046E1B190366907C401C90740020C8
:102AD0000880488070BC7047002C014070B40E4BD9
:102AE00002466032D47C5D687026B5435D60002389
:102AF0003A252B54957C102D0AD2A400856F4C34B6
:102B00002C592488456E64194466907C401C90744E
:102B10000B804B8070BC7047002C0140F8B43B49DF
:102B20004B68042293434B600A604B68082293432E
:102B30004B600A60364A13680124E404234313609F
:102B40008023344CDB432361E36880252B43E3601F
:102B5000034640339D8D6D1E656201249569A40571
:102B6000254395619269224000922B4ACD14D46886
:102B70002C43D4608A681724A2434C0522438A6000
:102B80008A68D243FCD58A68D2435207F8D58A684E
:102B9000D243D206F4D58A68D2439207F0D58A6828
:102BA0001E4C2240521C8A600A68D243D207FBD1D5
:102BB0001C4904460E781C4D194A6E3474510D7828
:102BC0001B4E1A4CAC5103240E78151D77593F0C3F
:102BD0003F04274377510978555801242543555020
:102BE0000C494A687025AA434A60124D0A6A2A4372
:102BF0000A620A1582660022603042750275C2754B
:102C0000DA81086820430860F8BC7047002401405E
:102C100000100240002C014000580140E8FFFF7FF7
:102C200000000240D85D00080C0002404024014032
:102C3000080002405505000060300021437D0A462F
:102C4000012B01D102214275037D012B02D14023CA
:102C5000194302750846704710B501218902816643
:102C600073210A5C3A210A546C21095A491E89B21F
:102C700000F064F910BDF8B502464032818F978D9F
:102C8000C68F7B1A9CB2836F4033DD8CAC4206D971
:102C900004233A210B54918D491E89B213E08E1BF7
:102CA000B6B26400B44202D21A8D891A0AE06918D9
:102CB00089B28F4207D80123DB028366928D5200CE
:102CC000511A491E89B200F039F9F8BDF0B4224911
:102CD000CA6852085200CA60002242231A544B6C40
:102CE0000124E403A3434B6404466034A37D012B19
:102CF0000FD0836F7225ED5C022D0AD15D681B69D0
:102D0000AB62836F9D685B69AB62836FD8689B69B8
:102D100083621348114B00781D580226B5431D509D
:102D200010488568104F3D4010358560C5686D08B6
:102D30006D00C5605E6004230360C3683725AD0184
:102D4000AB43C360E275321F0A610869C043C00724
:102D5000FBD10A61F0BC7047002C0140000002402A
:102D6000D85D000800240140E8FFFF7FF0B4024670
:102D7000002340329370012377242354938D3649E6
:102D80005B084B63938D5B088B63938D5B08CB6310
:102D9000928D521F0A640124E4430C610A69D243F4
:102DA000D207FBD10C614A6C01239B021A434A648F
:102DB0004A6C5B011A434A64826F72239B5C022B4C
:102DC0000ED10D6A254BAB435368126939D09A6214
:102DD000826F936852699A62836FDA689B69936223
:102DE000806F1F4B6030807A5A69D208D20002434C
:102DF0005A611D4A1B481578465976087600465197
:102E000002261578071DEF593F0C3F043743061D76
:102E1000AF511678875901252F43875104261E602C
:102E2000DF68BF08BF002F43DF6046601278835819
:102E30000226334383500C61C8682843C860F0BC45
:102E400070479A61836F9A685B699361826FD368F8
:102E500092699A61C4E70000002C0140550500000A
:102E60000024014000000240D85D000870B4836E69
:102E70001C49CA680324A402A2431A43CA60CA6850
:102E80000B153724A401A2431A43CA60024620321C
:102E90001546927E846FA2186032127B9400CA6835
:102EA0000426B2432243CA60AA7E846F92001C3279
:102EB000A2588A62826F4C696032927AE408E40018
:102EC00014434C61084C62687025AA432A4362602F
:102ED0008A68064C2240121D8A60836670BC4630A8
:102EE0007047000000240140002C0140E8FFFF7FF4
:102EF0000123422210491354DA1E0A6100224A6358
:102F00008A63CA630A69D243D207FBD14A6C0123A0
:102F1000DB031A434A64816F7222525C022A0AD18F
:102F20004A6809699161826F916852698A61816F0B
:102F3000C868896981617047002C01400246806F32
:102F40000368508E5863908E9863D08ED86319644E
:102F500058684006400F00D00120118F012902D18E
:102F600001200021118770471D4806210078024684
:102F70004A431C49895C012931D1F0B41A4B042120
:102F800019608100194843581B68DC68A408A40034
:102F9000DC6043581B68DC683725AD01AC43DC605E
:102FA00044582368A4685D69ED08ED0025435D6120
:102FB00043581D791E680123AC061F46AF403C43B1
:102FC0006403640BB462405800688168084C214077
:102FD000091D8160034810184370F0BC70477047AA
:102FE0005A070020B8090020002401408809002069
:102FF000E8FFFF7FF0B4062207465743444A00210A
:10300000D55D13460424FB18002D24D106254D431D
:10301000565D012E0DD1AE187579854208D95D71C6
:10302000197106214D437071A9180871042100E03F
:103030000C46491CC9B2042912D0E7D30121D1554D
:1030400000215970334906250C786C43A218527838
:10305000012A00D008703049C97D002911D053E001
:10306000042C0BD0062161438D18697959711C71AC
:1030700006246143687189180871DFE725490870E3
:10308000DCE7264A800011580968CC68A408A4002F
:10309000CC6011580968CC683725AD01AC43CC60D1
:1030A00014582168A4684D69ED08ED0025434D6171
:1030B00011580D790E68AC060121A9400C4361033B
:1030C000490BB1621158042409680C601158096851
:1030D0008C68134D2C40241D8C60105800680168CA
:1030E000C9434907FBD4006C58800A48017889001D
:1030F000515801220968CC68A408A4001443CC608C
:1031000059790170022058705888F0BC704700004F
:10311000B80900205A070020B802002088090020C2
:10312000E8FFFF7F70B50C4CA078012812D16078C1
:10313000FFF760FFA08001460220A0706578074875
:10314000EA008358002B05D00026A67010184268AC
:103150002846984770BD00005A07002098090020B3
:1031600010B40E4906200A780D4B5043C01843781E
:10317000012B0ED193000B4AD25813681B6C43806D
:103180000223437012680123D468A408A4001C43DE
:10319000D4604079087010BC704700005A070020C6
:1031A000B80900208809002070B40246FF201E4B99
:1031B00000218C001C59002C32D026791579AE42A2
:1031C00005D124681568AC4201D108460421491C88
:1031D000C9B20429EDD3042820D281005A5000231B
:1031E000124CC100635011688C68E443E4070ED0B0
:1031F0008C681725AC43ED072C438C6011688A68F6
:10320000D243FCD58A680A4C2240521C8A600621AF
:10321000084A4143535489184871087170BC70477B
:103220000428D4D90846D2E788090020980900204C
:10323000E8FFFF7FB809002010B5C36842698168C4
:10324000012B03D9046961185B1E04E0012B03D133
:10325000416851430023C36081601830FDF792F844
:1032600010BDF7B5054684B0012002900E462846F1
:1032700018306A69A968FDF785F80090069800285B
:1032800012D00098301A019002F033FA07460098E5
:1032900002F02FFA0446304602F02BFAA7420CD275
:1032A00087420CD23C460BE0304602F022FA6861BD
:1032B0007043A8600020E86016E0844200D3044612
:1032C0006C6100986E606043A86028680699484366
:1032D0007D21C900FCF70AFF401CE860019A014605
:1032E00062431046FCF718FF2861029807B0F0BD52
:1032F00010B5002181604160C1600161012141611F
:103300001830FDF7D0F810BD0146C968002000292B
:1033100000D101207047F0B5044687B0C06E009020
:10332000A06E01900E46E180274600214037797556
:103330003976F974254639750C35009802F025F96F
:103340000021019800F013FA6088704301B20098E0
:1033500002F087F900221146019800F082F9A8884E
:103360002A88704301B2019800F07BF968882A88A6
:10337000704301B2009802F034F92888218848434C
:103380007D21C900FCF7B2FE401CA080A868A060A7
:103390000020F87507B0F0BD70B50446808801259F
:1033A000002804D0401E0004000CA08025D1A06895
:1033B000002821D08188E2885143028809B2A06E9A
:1033C00000F04FF9A068E28841885143028809B2B1
:1033D000E06E02F006F9A6682188308848437D2116
:1033E000C900FCF783FE401CA080B068A060403498
:1033F000207E401C207600E00025284670BD014656
:1034000040310A7E497A00208A4200D30120704769
:103410004030007A70470C22514308188089704769
:103420000C22514309180E20085E70470C225143AC
:1034300009181020085E704770B506466830049D74
:103440002EC000240546383D0C362C7521466C757F
:10345000783802E0B668641CE4B2002E01D0052C76
:10346000F8D322460C235A43121891602C7200881C
:10347000642148437D21C900FCF738FEA87570BD62
:103480000C2359430818828170470C2359430818AC
:10349000C28170470C23594308180282704700000C
:1034A000F8B5054604462035A879FFF7A3FD144971
:1034B000074688421ED06979206A49004752002297
:1034C000268B1046002E07D9216A4300CB5A401C98
:1034D0009A18C0B28642F8D831461046FCF706FE6C
:1034E000E080A7806879761EB04201DA401C00E0D7
:1034F00000206871204600F005F82081F8BD00002A
:10350000FFFF0000C188428B914201D90220704721
:10351000808B814201D2042070470020704710B494
:10352000418B828B038B89184A080021002B07D915
:103530004C00036A491C1A53038B89B28B42F7D89B
:103540008280C28000212030417110BC704710B5CC
:1035500004460C30FFF728FE262108552046FFF7C9
:10356000DEFF10BD01460C20085E704701460420B6
:10357000085E704701461020085E704710B50C21A8
:10358000415ECA03521A1421415E1046FCF7C4FD85
:1035900000B210BD70B40023CE5E0125C47802785D
:1035A000002E02DA714289B200E00988868A8E42D2
:1035B00000D20123C68A8E4200D901231221415E26
:1035C000002902DA494289B200E0418A068B8E4224
:1035D00001D3002B04D0A24205D2521CD2B202E089
:1035E000A24200D20022A24200D100250270284649
:1035F00070BC704770B501780546002907D06C682B
:10360000E868012805D9AA691419401E06E0AC68CB
:10361000F6E7012803D1688804040020E860012946
:1036200005D0E017000C00190014AC6070BDE01765
:10363000000C001906146869FFF794FF301A01B2F4
:103640002869FEF79DFF01046C60A96070BD0178D8
:10365000012905D110B500690021FEF789FF10BDD1
:103660007047F8B504460078012617460D46002835
:103670000DD06068C117090C081800140090E08B89
:10368000A84215DB2420205EA84211DC12E020466F
:1036900000F057F80090E08CA84205DA2820205E60
:1036A0000026A84204DC27E02820205EA84208DD8E
:1036B000002621E0208CA84203DD2220205EA842C3
:1036C000F6DB002F10D06580A08B7D217843C900E8
:1036D000FCF70CFD401CE0600099691A0A040146E1
:1036E0001046FCF719FD06E021782804012905D0D1
:1036F000A0600020E060A0613046F8BD6060F8E79F
:1037000010B504464069FFF72DFF0004606010BD4E
:10371000C28D1146028E88B2110408437047C08BD7
:1037200070474068C117090C08180014704701461B
:103730002C20085E704701462420085E70474069CF
:1037400070478068C117090C08180014704742615F
:1037500001612A21095C0170818D09044160C18DDC
:103760000904816000214180C1608161704701705E
:103770000021C1607047416170470021C1608161D3
:103780007047027800210B2A04D109210170002121
:10379000818001210846704710B4448803780C43A7
:1037A0009443448082880A4382800A2B07D0002CED
:1037B00002D00A2101700B4610BC18467047002C3D
:1037C000FAD10B2101700B46F6E78188408800048E
:1037D0000843704700787047002101704180818064
:1037E000704710B502780024152A73D213007B4469
:1037F0001B79DB189F440D142A2D4E5C6164676AA7
:103800006E6E0A1B2025383D4955440000296DD0B5
:1038100060E003296AD0012968D00C2966D05DE0F8
:10382000072963D00D2961D00E295FD052E00E29FF
:103830005CD007295AD04DE00F2957D0072955D021
:1038400048E0022952D0072950D043E007294DD043
:1038500040E007294AD0102948D0042946D0112930
:1038600044D0012942D035E011293FD007293DD06D
:1038700030E012293AD0072938D0142936D029E06F
:10388000122933D0072931D024E004292ED007296A
:103890002CD01FE0132929D0072927D0052925D0AE
:1038A00018E0042922D0072920D005291ED011E0D4
:1038B00006291BD0072919D00CE0072916D009E0EA
:1038C000082913D006E0092910D003E000290DD003
:1038D0000C290BD0032907D0012905D0072903D0D3
:1038E00000228021FFF758FF204610BD01240170FF
:1038F000FAE770B5343014460D460646FEF728FE4A
:1039000028803046FEF71EFE208070BD10B500688E
:1039100000213430FEF72CFE10BD70B4F424245C7A
:10392000C21DF9326400F421241874260D5CA65FD0
:10393000D17B937B9468591A341900290FD06918E8
:10394000994200DBC91A490009187423CB5EE31AB7
:10395000148C19462141C181936070BC70470C21C1
:10396000515E631AF4E7F3B50446FF3085B00130C9
:1039700000220090867B1746039201920492104623
:103980000292002E08D9410009197423CB5E401C15
:103990009A18C0B2B042F6D331461046FCF7BCFBD1
:1039A00005460020002E0AD94100091974228A5EBA
:1039B000401C511B49437F18C0B2B042F4D331467A
:1039C0003846FCF7A9FB01462846684302460098A2
:1039D000008A5043C217520E1018C011814201DAFA
:1039E00001200490608BA27868435043E169FCF7A2
:1039F00093FB6178FCF790FB069925460880A0812F
:103A0000E035049E6E750099097901290CD00120DA
:103A10000290287E002840D00298404206400020B4
:103A2000002E40D0E87538E0002800DA40420099C6
:103A3000498B814228DD224640323021515E1346B7
:103A400032229A5E49435243511803911421C20312
:103A5000615E101AFCF760FB01460098407E484307
:103A6000C217920E101880114843C117890E019099
:103A7000081881110098007E41430198401A03996B
:103A8000814201DD0120029002986876FC210398B2
:103A90000851009801990160BBE720460699FFF79D
:103AA00079FD07B0F0BDE97D491CC9B2E975009AFE
:103AB000D27D9142F1D3E875E0782070002007B004
:103AC000F0BDF0B52E23C35E0446856ED803C21A3E
:103AD00093B0954201DDA26604E0D803181A85422E
:103AE00000DCA066A06EE51DF9350290EF8BE66E56
:103AF000384100B2964205DCDA039A1A964201DD9B
:103B0000E26E00E0E26605922C233A41E35E266E07
:103B1000DF03FF1ABC4612B2664501DD276604E0EA
:103B2000DF03DF1BBE4200DC2766666E6746664524
:103B300001DD676604E0DF03DB1B9E4200DC636699
:103B4000236E01932E7F8F8833411BB29E46DB1B71
:103B50001BB29C46636E069333411FB21197CE8809
:103B6000BB1B1EB20B8900270B93CF5F7B431B143B
:103B70000A930227CF5F0B9B20217B431F140D97D5
:103B8000615E734610915943019B5F1A2221615E69
:103B900063468E4659437F182821615E0A9B0C912B
:103BA00059437B182421615E0B914143591A0191BD
:103BB0002621615E0E9163465943029B678E591818
:103BC00013463B410A972A27E75FBC465F430E2313
:103BD000E35E5F43C9190291119F10997943069FD3
:103BE0007F1A714671437F18BE460D9F0C99794329
:103BF00077467F180B995143791A06910E997143B4
:103C0000059E77180A9906460E41614671434B435B
:103C10002421695EFF1A002901DB012101E0002156
:103C2000C9432346403318865A86484306B24A435E
:103C3000504202B204200492205EFDF7E9FE011416
:103C4000049A00B271435043C013C91300B209B2C1
:103C5000411A20463430FEF793FC21462082E031A1
:103C60000A7DAB7B521CD2B2934200D1002253009A
:103C70001B1940339E8EAE8198860A75A18808185C
:103C800000B2A080019921660299A1660699E766B3
:103C9000616613B0F0BDF8B500210166416681662A
:103CA000C16681800246C181E0329175D17511767D
:103CB0005176FC22C71D1150F93739603A4620323F
:103CC000B9609170D170BC7B002C15D00023E20745
:103CD000D20F02D0742319520123A2420CDA5D00E4
:103CE0002D184035A9865B1C5D002D184035921CAF
:103CF0005B1CA986A242F2DBF4221154B981002197
:103D00003430FEF735FCF8BD00680121FF3021306A
:103D10008170704700680121FF302130C170704709
:103D20004030028E1146428E88B21104084370471B
:103D3000FF30013000687047FF231D331B5C016EAC
:103D400019410A46416E90B219410904084370476F
:103D50008030C06F7047438C0B80C08C10807047E0
:103D6000F8B50446FF300130827DF6210A55012165
:103D700001710D46002767862E21615E0F480E46B1
:103D8000FCF7CAF900B2002808D0C10F0818618EEC
:103D90004010491C6D0061860028F6D128B22086AB
:103DA00070430749FCF7B8F960852046FFF773FFB9
:103DB00020463430FEF7D2FB6782F8BD5EEA0F0082
:103DC000BE280000F0B4C41DF9342246A18420327C
:103DD000D3780025012B01D10C21415E9378024656
:103DE000E032012B2ED00C23C35E1E464E43002E24
:103DF0002FDD002B01DA5B421BB2002901DA4942B8
:103E000009B2A67C4E43F7173F0FBE19361136B2E2
:103E1000B446E67C4E43F117090F89190911567D06
:103E200009B2012E13D1A78A9EB2BE420FD98B428E
:103E30000DDB63450BDC917D491CC9B29175A37DF7
:103E4000994206D3012515760021017001E000207A
:103E500090752846F0BC70470068E030407D7047A0
:103E60004184C284704710B500213430FEF780FBD6
:103E700010BD70B5343014460546FEF77FFB214671
:103E80002846FEF779FB70BD10B5084C2078022853
:103E900005D1FCF7FFFDFDF7F3F900202070C0B25B
:103EA000401C2070FEF782F910BD00006007002062
:103EB0007047000010B5104CA06F00680169C9433D
:103EC000C90708D1C168C943C90704D1891E016166
:103ED0002046FEF7CBFFA06F00680169C9430906C1
:103EE00009D4C168C943090605D48021C9430161C9
:103EF0000148FCF701FA10BD58020020F0B4026836
:103F00001B4B1C4C984201D0A04203D17025AA4300
:103F10004D682A43184D194E194F98420AD0A042B5
:103F200008D0184CA04205D0A84203D0B04201D01E
:103F3000B84205D11446032212029443CA682243B0
:103F40008024A2434C69224302608A68C2620A68E4
:103F50008262984205D0A84203D0B04201D0B84254
:103F600001D10969016301214161F0BC7047000082
:103F7000002C01400004004000400140004401408A
:103F80000048014000200040F0B4026A520852008C
:103F90000262056A436882697024A24392080C6831
:103FA00092001443022295438A68174E2A43154D06
:103FB000A84207D0B04205D0144FB84202D0144FE7
:103FC000B84206D10827BA43CF6817430422974363
:103FD0003A46A84207D0B04205D00C4DA84202D0C4
:103FE0000B4DA84206D103252D02AB434D691D435D
:103FF0008B692B4343608461496841630262F0BC72
:1040000070470000002C0140004001400044014086
:104010000048014070B4026A10239A430262056AA4
:104020004268836973242402A3430C6824021C435E
:1040300020239D438B681B012B43124DA84208D1BE
:104040001D46CB688026B5431B012B434025AB435F
:1040500008E00D4DA84205D00C4DA84202D00C4DF1
:10406000A84208D10325AD02AA434D69AD0015430E
:104070008A6992002A4342608461496881630362CD
:1040800070BC7047002C01400040014000440140DA
:1040900000480140034900208988002900D10120FF
:1040A000704700002007002010B505480068FEF7A3
:1040B0000DFE002280210348FFF76EFB10BD0000BB
:1040C0004407002054070020F0B58DB00020564969
:1040D0000B90881C07904A8B68460282898B41822C
:1040E0005248514C0078132809D1514D2868FFF7E8
:1040F0000BF9002803D12868FFF79EF820824D486D
:104100000068FFF71CFB0990FFF730FA019009984F
:10411000FFF730FA48480AA90068FEF7CBFAFEF725
:1041200023FF0A98FDF7F6FB08900199FDF718FCAC
:1041300005461020205E29B2411A40480068FEF76B
:104140001FFA06461220205E2914411A3C480068D6
:10415000FEF716FAB1B2000401433A480068FCF7D2
:104160007EF807460998FFF705FA38460199FDF7EA
:1041700037FC0646304831460068FEF79DFA03904A
:10418000FEF7EEFF2849380CCF8208836846008D81
:1041900020806846408D60800898A0800898000CB8
:1041A000E080A581280CE0810799300C0E834883BC
:1041B000019820840398012818D02348FFF71FF99D
:1041C0000546A08869468882E088C8821F48C06981
:1041D00001F03DF96946088304A91D48FFF771FC09
:1041E0001B48FFF79AFB002D06D008E000220121B2
:1041F0000E48FFF7D1FA13E01548FFF734FE0B48DD
:10420000FFF7E8FA042803D0132801D0052807D1C6
:104210000F48FFF7ABF9694608800E4801F05BF9DB
:104220000B980DB0F0BD0000F008002054070020EE
:10423000500700202C0700204407002034070020EE
:10424000380700204C070020E00100202007002054
:104250004C030020D402002070B582B000206946D3
:1042600008809A48FFF77FFB044699480068FEF7EC
:10427000C9F99848FFF7AEFAC01E112820D20100F4
:104280007944097949188F440853CCE4F7F5F41BB5
:104290001B1B1B1B1B1D2C39A3008F480068FDF73F
:1042A000BAFA01468D48FFF736F88D480068FEF7E8
:1042B0001FFE142000F07EF910218648FFF791FAC6
:1042C00002B070BDFFF7E6FE0028F9D08448002157
:1042D0000068FEF7CDF911217E48FFF782FA02B09F
:1042E00070BD7F4801210068FEF7C2F90028F6D0B2
:1042F00012217848FFF775FA02B070BD79480121A4
:104300000171794879490068FFF735FA6F48FFF77E
:10431000C2FC04216F48FFF764FA0028ECD00020AB
:10432000FCF7E6F86E480068FEF720FD02B070BDAD
:104330006A48FFF731F8002844D06B480068FFF75F
:1043400059F96B4A80B2938A190408431082000C11
:10435000508201A9654801F07CF86048FFF74FF8EA
:104360000028E3D068460421415E5848FFF72AFD43
:10437000044601465D4801F07FF9002CD6D0534831
:10438000FFF7F4F85A4D0146AA881046EA8880B231
:1043900012041043FDF7E4FA564C06462068FEF777
:1043A000A7FF1021695E00222068FEF75AFF31B294
:1043B00019222068FEF755FF1321201DFFF711FA7F
:1043C00002B070BD002210214248FFF7E5F9C0E7B6
:1043D0004248FEF7E1FF00281CD001A9434801F044
:1043E00038F80446414801F059F92043E8D0424CDE
:1043F0002068FEF7ABF83E4910228A5E50432268DF
:1044000001461046FEF7B4F805213248FFF7E9F9F6
:1044100002B070BD002210212E48FFF7BDF902B096
:1044200070BD314C29492068FFF7A5F90020FCF741
:1044300091F80020FCF746F806212648FFF7D1F94D
:104440002068FFF75DF9201F0068FDF779F902B0D9
:1044500070BD21480068FDF773F90020FCF732F8C1
:10446000002CF4D1002220211A48FFF795F902B060
:1044700070BD1EE014E0FFE719480068FEF726FC57
:104480000020FCF735F812480068FDF7CFFF19202F
:10449000400100F095F808210E48FFF7A2F9E6E781
:1044A00000F094F80028E2D009210A48FFF799F9B2
:1044B000DDE70D480D490068FFF75DF90B4801F095
:1044C00064F800210348FFF78CF9D0E74C03002083
:1044D000480700205407002028070020E0010020A2
:1044E00044070020100900202C070020D4020020DF
:1044F000F008002050070020300700200548007811
:10450000012806D110B5002000F006F8FEF70AFEDB
:1045100010BD704720070020F8B505461F48AE00C3
:10452000006800901E488059FDF7B2FF6A00694696
:10453000895A084007461B488059FEF797F83843C8
:104540000446002D07D11848C069FEF7A9FF694647
:10455000098808400443E04382B2062013496843B7
:10456000471821463846FFF717F93846FFF732F962
:104570000A2806D00B2803D10A488059FEF763F9B0
:10458000F8BD08488059FEF75EF92846FBF7B0FFF2
:1045900007488059FDF74AFFF8BD0000485B000856
:1045A0004007002044070020200700205407002077
:1045B000480700200149888070470000200700203C
:1045C0000149C880704700002007002003490020EF
:1045D000C988002900D10120704700002007002071
:1045E00010B4818CC90707D001684A6801235B04B5
:1045F0009A43836A1A434A60818C890707D5016808
:104600004A6801231B049A43C36A1A434A60818C97
:10461000490707D501684A6801239B049A43036B45
:104620001A434A60818C090707D501684A6801234B
:10463000DB039A43436B1A434A60818CC90607D552
:104640000268916801231B039943836B19439160AE
:10465000818C890607D501688A6801235B039A4328
:10466000C36B1A438A60818C490612D503685A6865
:1046700001210905046C8A4322435A60026C8A4274
:1046800007D10268516803235B059943436C1943C2
:104690005160818C090607D501684A680123DB0453
:1046A000806C9A4302434A6010BC7047F8B50025FD
:1046B0000446C567FCF7E8F9074620680068124E13
:1046C000000709D501213B460022490520460096F6
:1046D00000F0F2F800280DD12068006840070BD5E3
:1046E00001213B46002289052046009600F0E4F8AF
:1046F000002801D00320F8BD20206067A067603447
:1047000025740020F8BD0000FFFFFF0170B50446CE
:1047100080682169E26908436169002511432268C4
:1047200008431168584B19400143116020684168E3
:10473000032212039143E26811434160A169206A98
:10474000084321688A680B231B029A4302438A604C
:104750004E492068884210D14D48006B8007800F79
:104760001DD0012805D0022805D0032816D102202B
:1047700015E0042013E0082011E0464988420BD0E0
:104780004549884208D04549884205D04449884275
:1047900002D04449884201D1002000E010200122CB
:1047A000E169D203404E914238D1002806D0022858
:1047B0000ED0042814D0082860D11BE0FCF702FBBF
:1047C000616840004A088018FBF790FC80B219E04D
:1047D0006168364A48088018FBF788FC80B211E00F
:1047E000FCF700FB616840004A088018FBF77EFC7C
:1047F00080B207E061680122480812048018FBF7C4
:1048000075FC80B201461039B14237D828490140C1
:104810000007400F08432168C86030E0002806D038
:1048200002280DD0042813D0082827D119E0FCF75E
:10483000C9FA61684A081018FBF758FC80B216E004
:1048400061681C4A48088018FBF750FC80B20EE0F3
:10485000FCF7C8FA61684A081018FBF747FC80B2F9
:1048600005E0616848088018FBF740FC80B201460B
:104870001039B14202D82168C86000E0012500204B
:1048800020666066284670BDF369FFEF003801407E
:10489000001002400044004000480040004C00402E
:1048A0000050004000140140EFFF00000024F4001D
:1048B000F0FF000000127A00FFB50446006881B0E6
:1048C0000D460A9EC16917462846884330D000200D
:1048D000B8424BD1204660300090701C3ED0FCF7AF
:1048E000D3F80499401AB04224D8002E22D0206870
:1048F0000168490732D5C069C04300052ED40120A4
:104900002168C002086220680268FF21A1318A4341
:104910000260206881684908490081602020606742
:10492000A067E067009900200874032005B0F0BD7F
:104930000120CDE720680168FF22A1329143016088
:104940002068816849084900816020206067A0676D
:10495000009900200874032005B0F0BD2068C169EB
:104960002846884305D00020B842B6D0002005B0C4
:10497000F0BD0120F8E70021FF30013001777047DA
:1049800010B5FBF7E6FC10BD08B508216A461170AA
:104990000123FF2100F066F808BD0000F8B5C41D32
:1049A000F934227F234E0746002A41D0627F054614
:1049B0008035C9B2002A0BD0012A0FD0AB7E9930C6
:1049C0009B1C9A4213D21154607F401C60772FE0E9
:1049D0006976388A7882184E012006E0A97602208E
:1049E0006077A87E802823D30020607720E0E176DE
:1049F00000217982216A114E0A6820239A430A60B5
:104A000000212177FBF78DFCE17E884207D13A46F1
:104A1000BC68AB7E697E9B323868A04708E00A20FC
:104A20006946087001236A46FF21384600F01AF8EB
:104A30003046F8BDEC5D0008EE5D0008F05D000852
:104A4000FF300130017F002901D001207047002193
:104A5000417701210177006A01682022114301603A
:104A60000220704770B505468035EC7D002C01D0E2
:104A7000012070BD01750446591E16340646437563
:104A8000C9B2002B08D0137823700B46491E521C64
:104A9000641CC9B2002BF6D130461430FBF741FC40
:104AA000A875002028760120FF36E8750136306AA7
:104AB0000168802211430160022070BD30B40346BA
:104AC0008033DA7D0146002A1CD01A7E002A09D0E4
:104AD000012A09D04C7DA41CA24207D20C461434F2
:104AE000125D04E00A7D02E04A7D00E09A7DC81D67
:104AF000F930046A22854C7D1A7EA41CA24203D29E
:104B0000521C1A7630BC7047006A02688024A243A7
:104B100002600020D8750868496830BC084770B545
:104B20008268007D0124800015580F292ED20800CC
:104B30007844007900188744291915072A2A101D7E
:104B400021252929292915002846FCF79BFE06283E
:104B50001DD12846FCF7D9FE19E02846FCF792FE45
:104B6000002803D02846FCF7CAFE10E02846FCF7D0
:104B7000BBFE0CE02846FCF730FE08E02846FCF7B8
:104B8000D9FD04E02846FCF7CBFD00E000242046D8
:104B900070BD70B515468268007D800014580846C7
:104BA0000A2148433C21FBF7B7FA01B22A462046C6
:104BB000FCF703FE012070BD10B58368007D800006
:104BC0001858FCF701FE012010BD002070470000BE
:104BD00070B50446C368007DA56880001B582D5839
:104BE000002082B0002A01D001261670242970D03E
:104BF00018DC242949D20E007E443679B619B74410
:104C00004A4F548B5963696EF1ACAEB0B2B6BABEBE
:104C1000C2D54444F0EF4444447378EE44447DEDFF
:104C2000EC44EBEA352973D00FDC253910292CD25E
:104C30000E007E443679B619B744F1F0D0CFD49542
:104C4000EFEEEDEC2727D5EBEAE95B2969D00EDC26
:104C5000412975D006DC362973D03F2972D040290E
:104C600013D1A5E142296ED043290ED17EE17229EC
:104C70000FD006DC6E2968D06F296AD0702904D164
:104C800047E0732905D0812903D0002A01D00021F3
:104C9000117002B070BD204600F0E9F902B070BD9D
:104CA000986AFEF792FD02B070BD986AFEF792FD19
:104CB00002B070BD2846FCF7E0FD3C2148430A21C4
:104CC000FBF72AFA02B070BD1868FDF741FC02B08C
:104CD00070BD89E11868FDF735FC02B070BD186839
:104CE000FDF72CFC02B070BD186B00F0ABFB02B0FE
:104CF00070BDD86AFDF7EFFB02B070BD2846FCF727
:104D000071FD3C2148430A21FBF706FA02B070BD51
:104D1000EEE0C54802B070BD2846FCF76AFD02B05F
:104D200070BD2846FCF765FD0128C3D12846FCF775
:104D30009CFD3C2148430A21FBF7EEF902B070BD0F
:104D400011E0EAE02BE1FCE0FFE71868FDF704FC66
:104D5000F4E71868FDF7FAFBF0E7586808E05868D0
:104D60000AE058680CE02846FCF777FDFCE09868FC
:104D7000FDF7EEFBE2E79868FDF7E4FBDEE79868F5
:104D8000FDF7DCFBDAE7217D20698900415800202E
:104D90000A0F092A00D198690901090F092900D1D0
:104DA000D869002863D001AA694611E0217D2069F5
:104DB0008900415800200A0F092A00D19869090189
:104DC000090F092900D1D869002850D06A4601A9E5
:104DD000FEF7C1FF4BE003E1FBE0F6E0F1E0DAE0D3
:104DE0001EE030E00CE1227D216992008A5800210A
:104DF000140F092C00D199691201120F092A00D150
:104E0000D96900299AD00846FEF7B0FB96E75BE027
:104E100045E030E004E1FFE0FAE0F5E0ECE0E7E057
:104E2000217D20698900415800200A0F092A00D1FC
:104E300098690901090F092900D1D869002816D0FD
:104E400001AA694611E0217D2069890041580020AE
:104E50000A0F092A00D198690901090F092900D10F
:104E6000D869002803D06A4601A9FEF742FD6946C9
:104E70000020085E62E7227D216992008A580021A5
:104E8000140F092C00D199691201120F092A00D1BF
:104E9000D9690029BAD00846FEF770FB4EE7227D9B
:104EA000216992008A580021140F092C00D19969B8
:104EB0001201120F092A00D1D9690029A6D008468B
:104EC000FEF73AFF00B239E7227D216992008A5845
:104ED0000021140F092C00D199691201120F092A1F
:104EE00000D1D969002991D00846FEF725FF3BE0A3
:104EF000227D216992008A580021140F092C00D1CB
:104F000099691201120F092A00D1D9690029B1D07B
:104F10000846FEF705FF00B210E7227D21699200E6
:104F20008A580021140F092C00D199691201120F1F
:104F3000092A00D1D96900299CD00846FEF7F0FE65
:104F400012E0227D216992008A580021140F092C59
:104F500000D199691201120F092A00D1D9690029DB
:104F600088D00846FEF7E4FE0014E7E6227D2169BA
:104F700092008A580021140F092C00D1996912015E
:104F8000120F092A00D1D969002987D00846FEF7F7
:104F9000DFFE0014D2E6D86BFDF755FACEE6586A6C
:104FA000FEF7BDFB3C2148430A21FBF79FF8C5E60D
:104FB000586AFEF7C0FB3C2148430A21FBF7ACF8D6
:104FC000BCE62846FCF741FC7CE72846FCF73DFCA4
:104FD000CAE7596900299FD00846FEF719FAADE6DD
:104FE0002846FCF708FC6DE72846FCF704FCBBE705
:104FF0002846FCF708FC65E72846FCF704FCB3E705
:105000002846FCF72AFC5DE72846FCF74CFC59E7EC
:105010002846FCF748FCA7E72846FCF73CFC51E78C
:105020002846FCF738FC9FE77A84A634FFB5C168B0
:10503000007D81B080000858012544690A9F1E4602
:10504000002C10D020460299FEF7E5F9039908805C
:1050500020460299FEF7E4F9308020460299FEF7D7
:10506000E5F9388000E00025284605B0F0BD007D58
:10507000704710B5FDF792F8002802D0FDF7CCF884
:1050800010BDFDF7C1F810BD10B4019C0171C360E3
:10509000002182600175046110BC70470948418895
:1050A000002902D04188491E41808188012902D906
:1050B0008188491E81800188012902D90188491E01
:1050C0000180704764070020037901228B4201D8D8
:1050D000002200E0017510467047000001494F2092
:1050E000888070476407002001490020888070474D
:1050F0006407002010B58468007D89B28000120426
:1051000020581143FCF7E1FB10BDF0B515460246EF
:105110008368007D012680001F58D36883B018582B
:105120002CB20C2978D00CDC0C291ED20B007B444D
:105130001B79DB189F441D19193E192F343955600E
:10514000656B112972D008DC0D2976D00E2979D033
:105150000F297CD0102908D17EE014296AD01529A6
:1051600069D0412968D05B2909D00026304603B0B8
:10517000F0BDE9B21046FFF7A7FF0646F6E728465E
:105180000A2148433C21FAF7C7FF01B20022384602
:10519000FCF713FBEAE700682146FDF7EFF9E5E7C6
:1051A00000682146FDF7E8F9E0E700682146FDF7D1
:1051B000E1F9DBE72806000E07D13846FCF767FB6C
:1051C000014600223846FCF7FFFAE8B20128CDD1AB
:1051D0003846FCF752FB014600223846FCF7EDFA50
:1051E000C4E73846FCF739FB010C0904A0B20143BF
:1051F0003846FCF76AFBB9E740682146FDF7BEF97F
:10520000B4E740682146FDF7B7F9AFE704E040682E
:105210002146FDF7AFF9A9E73846FCF71EFB81B23E
:10522000200401433846FCF750FB9FE731E004E0DF
:1052300008E00CE04AE066E082E080682146FDF785
:105240009DF993E780682146FDF796F98EE780681F
:105250002146FDF78FF989E71169127D002592003B
:1052600089580A0F092A00D185690901090F0929FE
:1052700000D1C569002D8DD06A4601A92846FEF7E8
:105280006AFD68460022825E21462846FEF7E8FD58
:105290006CE71169127D0025920089580A0F092ACE
:1052A00000D185690901090F092900D1C569002DBF
:1052B00096D001AA69462846FEF74DFD68460021B2
:1052C000415E22462846FEF7CBFD4FE71169127D6D
:1052D0000025920089580A0F092A00D18569090121
:1052E000090F092900D1C569002D84D001AA69469A
:1052F0002846FEF7FEFA68460021415E224628460F
:10530000FEF7B7FD32E71169127D0025920089583A
:105310000A0F092A00D185690901090F092900D15D
:10532000C569002D8DD06A4601A92846FEF7E1FA2D
:1053300068460022825E21462846FEF79AFD15E760
:1053400021463846FCF7CBFA10E7F8B50E46C1689F
:10535000007D1C4680000858069D47693146384646
:10536000FEF78EF8224631463846FEF78EF82A467A
:1053700031463846FEF78EF80120F8BDFFB583B000
:10538000114C10480C9D1149A060CCC9CCC04A6892
:105390000968426001600E48FFF7F2FA0D48019576
:1053A00000900D4B0D4A0A49A068FCF781FB039859
:1053B0000090069B059A0499A068FFF765FE07B068
:1053C000F0BD0000D009002064070020C4080020C0
:1053D000E405002077490008414A0008654A0008B2
:1053E00010B5164C206AC169C94389060FD4808C58
:1053F000C1B21348FFF7D2FA0088012802D0022870
:1054000003D004E0FFF76AFE01E0FFF76DFE206ABB
:10541000C069C043000602D40948FFF74FFB206A69
:10542000C069C043000707D40548FFF7ADFA206AFA
:1054300008210162FFF758FE10BD0000E4060020BD
:10544000E4050020C18840884843000C7047C088AC
:10545000704770B50446008D00260D46012816D908
:10546000216A606A4018C117090C606208180014AC
:10547000E0816278E1695143628B50430A225043D4
:10548000FAF74AFE2880A081208D401E1EE00128E8
:105490000CD0A08928802D20005D002818D0294636
:1054A0002046FEF777F80646304670BD608D2880AE
:1054B000A0810020285EE1690A224843618B5143A4
:1054C000FAF72AFE61784843E08100202085E2E770
:1054D000E0782070E8E7F0B5044683B00120254667
:1054E00020350090E87C0E46012811D00E21208E38
:1054F000615E401820862046627838300190FAF7C5
:1055000041FFE1884018E080287B012803D037E084
:105510000020085E36E02E20205E00280BD0401EC2
:1055200001B2E1850E20205E00280BDB3088228E40
:10553000801A07B20DE00020305E0121697300215E
:1055400021701FE0208E3288801A07B20020C043ED
:10555000009036227943A25E0198FAF713FF009972
:10556000484300B2002F04DB0121A9743188081AD6
:1055700004E0A97C002903D03188081800B201E0BA
:105580003020205EA08003B0F0BD70B5044600203E
:10559000A080E080A081E081608220702062606253
:1055A000208521462086203108734873E28EE285EB
:1055B0008874C87420463830627801210546FAF7AD
:1055C000E1FE3622A25E01212846FAF7DBFE70BD1D
:1055D00010B504463830FAF766FF2046FFF7D5FFCE
:1055E00010BDF0B504462030007B83B00D46002886
:1055F00025D1002A25D0A08E7D215043C900FAF77D
:1056000075FD401C80B20190208561780E270091C5
:10561000E75F3846FAF780FD0646618B0A20414372
:10562000E0696843FAF778FD801B00040199FAF7F6
:1056300073FD00994143216265853804606203B0BF
:10564000F0BDA581618B0A204143E0696843FAF708
:1056500063FD61784843E08100202085658503B0C3
:10566000F0BD70B50C460546018620466978FAF70C
:1056700053FDE880AC8070BD10B4012200290AD02F
:105680000146012320310B73C48E002C03D14B73D0
:10569000002101700A4610BC104670472030407B44
:1056A0007047F0B4040C8BB2264682B25E430D0CF8
:1056B0001046370C584336048019002179411646AC
:1056C0006E43370C36048019794126466E4389199A
:1056D000F0BC704702E008C8121F08C1002AFAD1C6
:1056E00070477047002001E001C1121F002AFBD162
:1056F000704730B4002800DA404201210C461F23D5
:105700005D1A2246AA40904203D2491CC9B2202900
:10571000F6D32046491E30BC8840704794B0FBF752
:10572000C1F9002401260F940B94112005961094C2
:1057300000900494019610200E9406901394000398
:1057400002940394099007940D9400010C94129410
:1057500002270A90119408976846FBF77FFB002800
:1057600001D072B6FEE707200C900E9401210D9730
:105770000F940CA8FBF788FA002801D072B6FEE758
:1057800010A810961294FBF701FA002801D072B607
:10579000FEE7FBF707FB914D039404946969012030
:1057A000800501436961696901400591696940119A
:1057B000014369616969014005916969800001439C
:1057C0006961696901400591696940100143696136
:1057D000696902960140059110200090804801906F
:1057E00069468048FBF7A4F86869304368616869D6
:1057F0000094C007C00F7D480194029444607A4928
:10580000846001600425066120214561C160047641
:1058100044768476C4764901C461016274490E718C
:105820008662FAF743FF002801D072B6FEE7012036
:10583000000301906946029700946C48FAF78CFEC9
:10584000002801D072B6FEE7694668480096FAF76C
:1058500083FE002801D072B6FEE7694663480097D0
:10586000FAF77AFE002801D072B6FEE769465F4873
:105870000095FAF771FE002801D072B6FEE7109489
:105880000094119401940394049405940294069452
:10589000089409940A9458480B940C940D940E940F
:1058A0000F9454494460016020218160FF25013537
:1058B0004661056151498461C160FBF755FE0028CE
:1058C00001D072B6FEE7702610A94B4810961194CD
:1058D000FBF70AFD002801D072B6FEE760200594B0
:1058E0000194009002940394049400226946069463
:1058F0004148FBF765FD002801D072B6FEE704229F
:1059000069463D48FBF75CFD002801D072B6FEE712
:10591000082269463848FBF753FD002801D072B6CB
:10592000FEE7374801900C22694600963248FBF7A3
:1059300047FD002801D072B6FEE70120C0020890A2
:105940004010099013200B90012000030A950C9041
:105950000D9408A90F942848FBF796FC002801D065
:1059600072B6FEE72448FBF7EDFC274825490160A5
:105970008460E121C4604902046141608461C461C2
:1059800004620C2144624161FBF736FE002801D01D
:1059900072B6FEE7FCF75CFD002211460D20FBF716
:1059A000D3F80D20FBF7C4F8002201210920FBF7F2
:1059B000CBF80920FBF7BCF8002203211B20FBF7E2
:1059C000C3F81B20FBF7B4F8002203210720FBF7E4
:1059D000BBF80720FBF7ACF8FEE700000010024020
:1059E000000021100008004800240140800700202A
:1059F000A0070020002C0140C0070020DC050000AB
:105A0000DB050000003801400008002004210920C7
:105A100081B02B4AC006C261C161C261C1690091F7
:105A20000221921EC261C161C261C169009101215E
:105A3000521EC261C161C261C1690091214A102137
:105A4000C261C161C261C16900911F491212C16185
:105A5000C261C161C1690091520081214902C161E5
:105A6000C261C161C169009118494022C161C2612E
:105A7000C161C169009112020521154B8903D961E9
:105A8000DA61D961D9690091121141218902C1619C
:105A9000C261C161C069009051010320C003D86197
:105AA000D9611946C861C869D100009098131A4697
:105AB000D061D161D061D069009001B07047000021
:105AC000040001001000010000010100400001007D
:105AD00000040048F0B4046870252C406406A40F4C
